:0300000002A9EE64
:0CA9EE00787FE4F6D8FD7581B902AA3527
:1000260000227777772E79756E6B6F6E67732E6306
:100036006F6D22003830383900B3A300B7A200BA7A
:10004600C500BFC900C6F400CAF800CFC200D4B6C6
:1000560000A1B0003230314300A1B100323031444A
:1000660000A1E6003231303300A3A100464630310C
:1000760000A3AC004646304300A3BA0046463141D1
:1000860000B0DC003844323500B0F3003745443167
:1000960000B1A3003446444400B1A80036324135CD
:1000A60000B1B8003539303700B1D500393545448F
:1000B60000B1E0003746313600B2BB00344530446B
:1000C60000B2BF003930453800B2CE003533433276
:1000D60000B2D9003634434400B2E200364434421A
:1000E60000B2E9003637453500B2EE0035444545E5
:1000F600003545333800B3AC003844383500B3C951
:10010600003632313000B3CC003741304200B3FD07
:10011600003936363400B4A5003839453600B4CB3C
:10012600003642363400B4CE003642323100B4DFF7
:10013600003530414300B4ED003935313900B5B1F1
:10014600003546353300B5C4003736383400B5CDF2
:10015600003446344500B5CE003645463400B5E396
:10016600003730423900B5E7003735333500B6A8D9
:10017600003542394100B6C8003545413600B6CC97
:10018600003737454400B6CF003635414400353395
:10019600443100B7BD003635423900B7D600353296
:1001A600303600B7E5003543463000B7E70039384A
:1001B600434500B8B4003539304400B8C30038426E
:1001C600453500B8DF003941443800B8F400393607
:1001D600393400B8F6003445324100B9A40035443C
:1001E600453500B9A6003532394600B9A90034466E
:1001F600394200B9B2003531373100B9BB00353963
:10020600314600B9C8003843333700B9CA0036351D
:10021600343500B9D8003531373300B9DC00374200
:10022600413100B9FD0038464337003533463700C3
:10023600BACE003446353500BBA400363241340010
:10024600BBAF003533313600BBD600363036320010
:10025600BBF2003632313600BBFA00363733410086
:10026600BCB0003533434100BCB6003745413700CA
:10027600BCC6003842413100BCD3003532413000A3
:10028600BCE4003935463400BCEC00363843300057
:10029600BDE1003745443300BDF600344543350023
:1002A600BDFB003739383100BEAF00384236360064
:1002B600BEDD003633364500BEF90035373437002B
:1002C600BFAA0035463030003533454600BFD8005A
:1002D6003633413700BFE2003545393300BFEE0003
:1002E6003642334500C0DB003744324600C0E000EA
:1002F6003743374200C0E4003531423700C0ED00D5
:100306003734303600C1BF003931434600C1EE00F4
:100316003445453400C1F7003644343100C2B700D5
:100326003844454600C2EB003738303100C3DC00A4
:100336003542433600C3EB003739443200C4A300CC
:100346003641323100C4DC003830464400C4EA008D
:100356003545373400C6DA003637314600C6F00078
:1003660038443737003534324600C6F7003536365E
:100376003800C6F8003643313400C7B00035323491
:100386004400C8A8003637343300C8B100374633B6
:100396004100C8C8003730454400C8CE0034454641
:1003A6004200C8D5003635453500C9BE0035323263
:1003B6003000C9CF003445304100C9E80038424218
:1003C6004500CAA7003539333100CAAA0036453779
:1003D6004600CAB1003635463600CAB50035423940
:1003E6004500CABC003539434200CABD0035463017
:1003F6004600CABE003739334100CAD60036323409
:1004060042003637354600CAFD003635373000CB58
:10041600AA003937314300CBAE003643333400CB24
:10042600CD003930303100CBF9003632343000CCD3
:10043600AC003630303100CCBD003633413200CC12
:10044600E1003633443000CDA3003530354300CDCE
:10045600A8003930314100CDB3003745444600CDC0
:10046600B7003539333400CDE2003539313600CEA8
:10047600AA003445334100CEB4003637324100CEAF
:10048600C2003645323900CEDE003635453000CE64
:10049600F3003842454600CFB500374346420034A4
:1004A60045304200CFD4003636334500CFDE003922
:1004B60036353000CFE0003736463800D0A100355B
:1004C60043304600D0A3003638323100D0AA003679
:1004D60042343700D0C2003635423000D0C5003431
:1004E60046453100D0ED003842423800D1AF0038E1
:1004F60042453200D1B9003533384200D1D30035F8
:1005060045463600D1E9003941384300D2D100359D
:1005160044463200D3C3003735323800D3D00036D4
:1005260037303900D4AD003533394600D4B1003503
:1005360034353800D4B400364539300038464443A3
:1005460000D4C2003637303800D4CA0035313431D1
:1005560000D4D8003846374400D4DD003636383269
:1005660000D4F6003538394500D5CF003936394341
:1005760000D5FD003642363300D6A400384243315A
:1005860000D6B5003530334300D6B80036333037A1
:1005960000D6B9003642363200D6C600353233367A
:1005A60000D6D3003934394600D6D8003931434411
:1005B60000D6DC003534363800D7A200364345383D
:1005C60000D7B4003732423600D7BC003531433647
:1005D60000D7F7003446354300D1B9BBFACDA300A6
:1005E600D1B9BBFAD1D3CAB100D1B9BBFABFAA00FF
:1005F600BBAFCBAACDA300BBAFCBAAB5CECBAE00CB
:10060600BBAFCBAABFAA00B7E7BBFACDA300B7E73B
:10061600BBFAD1D3CAB100B7E7BBFABFAA00BCD3B5
:10062600CAAACDA300BCD3CAAABFAA00B3FDCAAA50
:10063600CDA300B3FDCAAABFAA00C0E4BFE2CEC2E2
:10064600B6C800BBAFCBAACEC2B6C800C0E4BFE2F4
:10065600CAAAB6C80041CFE0B5E7C1F70042CFE06D
:10066600B5E7C1F70043CFE0B5E7C1F700D1B9BBA5
:10067600FAD7B4CCAC00BBAFCBAAD7B4CCAC00B7DE
:10068600E7BBFAD7B4CCAC00BCD3CAAAD7B4CCACBF
:1006960000B3FDCAAAD7B4CCAC00573031303131E3
:1006A6000057303130323100573031303331005756
:1006B6003031303431005730313035310057303138
:1006C6003036330057303130373300573031303819
:1006D6003400573031303934005730313130320040
:1006E60057303131313200573031313231005730E5
:1006F60031313331005730313134310057303131F7
:1007060035310057303131363100573031313731DC
:100716000057303131383100BFE2CEC2B3ACB8DF5A
:1007260000BFE2CEC2B3ACB5CD00BFE2CEC2CCBDF7
:10073600CDB7BFAAC2B700BFE2CEC2CCBDCDB7B659
:10074600CCC2B700BBAFCBAACEC2B6C8B3ACB8DF7B
:1007560000BBAFCBAACCBDCDB7BFAAC2B700BBAF5B
:10076600CBAACCBDCDB7B6CCC2B700CAAAB6C8CC48
:10077600BDCDB7BFAAC2B700CEC2B6C8CCBDCDB735
:10078600B6CCC2B700CAAAB6C8B3ACB8DF00CAAA0C
:10079600B6C8B3ACB5CD00D1B9BBFAB9FDD4D80053
:1007A600D1B9BBFAC8B1CFE000B5E7D4B4B6CFCF64
:1007B600E000B5E7D4B4B4EDCFE000D1B9BBFAB2EE
:1007C600BBBFAABBFA00D1B9BBFAB2BBCDA3BBFA79
:1007D60000CDE2B2BFB1A8BEAF003030313030310B
:1007E600303100303031303031303200303031305D
:1007F600303130330030303130303230310030304B
:10080600313030323032003030313030313130003A
:100816003130313033310031303130343100313024
:100826003130353100313031303631003130313010
:1008360037310031303130383100583031303130D5
:1008460000313036303136003130363032360058ED
:1008560030313032300031303630333700313036D7
:10086600303443003130363035430031303631369E
:1008760036005830313033300031303630363500BE
:100886003130363037360031303630383600583071
:10089600313034300031303130393100313031319E
:1008A6003031005830313037300058303130353043
:1008B600003130363039360031303631303600319D
:1008C6003036313136003130363132360031303261
:1008D6003032310031303230333100313032303461
:1008E600310031303230353100313032303631007E
:1008F6003130323037310058303130363000313017
:100906003330343100313036313337004E30313008
:10091600313000313036313435003130363135360C
:10092600002573002573257300BFE2CEC2A3BA006B
:1009360025730A0041CFE0A3BA00410A0042CFE086
:10094600A3BA0025732573410043CFE0A3BA00255F
:100956007325730A00BAC5BFD8D6C6C6F700BAC58E
:10096600CAB5CAB1CAFDBEDD00BAC5D1B9BBFAC0A7
:10097600E0B2CECAFD002573252E316600C9E8B661
:10098600A8CEC2B6C8A3BA00BFD8D6C6CEC2B2EEEB
:10099600A3BA00CCBDCDB7B9CAD5CFD1B9BBFACDB4
:1009A600A3BBFA00CCBDCDB7B9CAD5CFD1B9BBFA76
:1009B600BCE4D0AABFAACDA3002573257525730074
:1009C600CCBDCDB7B9CAD5CFCAB1D1B9BBFABFAACA
:1009D600A3BA002573257500CCBDCDB7B9CAD5CF4E
:1009E600CAB1D1B9BBFACDA3A3BA00BFE2CEC2D079
:1009F600A3D7BCA3BA00BFE2CEC2B3ACB8DFCEC2A7
:100A0600B2EEA3BA00BFE2CEC2B3ACB5CDCEC2B28F
:100A1600EEA3BA00D1B9BBFACDA3BBFAD1D3CAB102
:100A2600A3BA00B7E5B9C8D3C3B5E7C4A3CABDA383
:100A3600BABDFBD3C300B7E5B9C8D3C3B5E7C4A3F2
:100A4600CABDA3BAC6F4D3C30025732530327525B3
:100A56007300B9C8B5E7C6F0CABCCAB1BCE4A3BA4C
:100A6600002530327525730A00B9C8B5E7BDE1CA5D
:100A7600F8CAB1BCE4A3BA0025303275257300B9B3
:100A8600C8B5E7BFD8CEC2CEC2B6C8A3BA00BFE2C9
:100A9600CEC2B3ACB8DFB1A8BEAFD1D3CAB1A3BA88
:100AA60000BAC5BBAFCBAAC0E0B2CECAFD00BBAF91
:100AB600CBAAC4A3CABDA3BAB5E7BCD3C8C800BBFA
:100AC600AFCBAAC4A3CABDA3BAC8C8C6F8BCD3C80C
:100AD600C800BBAFCBAAD6DCC6DAA3BA00D0A1CA7F
:100AE600B10A00BBAFCBAACAB1BCE4A3BA00B7D661
:100AF6000A00BBAFCBAABDE1CAF8CEC2B6C8A3BA3C
:100B060000BBAFCBAAB5CECBAECAB1BCE4A3BA008C
:100B1600BBAFCBAAD6DCC6DABCC6CAB1B7BDCABDA6
:100B2600A3BAC0DBBCC6CDA8B5E700BBAFCBAAD67F
:100B3600DCC6DABCC6CAB1B7BDCABDA3BAC0DBBC87
:100B4600C6D6C6C0E400BBAFCBAAB3ACCEC2CEC23B
:100B5600B2EEA3BA00BBAFCBAACAB1BFE2CEC2B354
:100B6600ACB8DFB1A8BEAFA3BAC6F4D3C300BBAF5F
:100B7600CBAACAB1BFE2CEC2B3ACB8DFB1A8BEAF92
:100B8600A3BABDFBD3C300BAC5CAAAB6C8C0E0B2F1
:100B9600CECAFD00C9E8B6A8CAAAB6C8A3BA002537
:100BA60000C9CFCFDEB2EEA3BA00CFC2CFDEB2EE1F
:100BB600A3BA00B1A8BEAFC9CFCFDEB2EEA3BA00CA
:100BC600B1A8BEAFCFC2CFDEB2EEA3BA0025732561
:100BD6006400CAAAB6C8D0A3D5FDA3BA00BAC5CFC9
:100BE600B5CDB3C0E0B2CECAFD00CAD6BBFAB0F3EB
:100BF600B6A8C3DCC2EBA3BA00D4B6B3CCBFD8D672
:100C0600C6A3BABDFBD3C300D4B6B3CCBFD8D6C631
:100C1600A3BAC6F4D3C300B6CCD0C5D4B6B3CCBF42
:100C2600AAB9D8BBFAA3BABDFBD6B900B6CCD0C513
:100C3600D4B6B3CCBFAAB9D8BBFAA3BAD4CAD0ED3E
:100C460000B4DFBFEEB9A6C4DCA3BABDFBD3C300B4
:100C5600B4DFBFEEB9A6C4DCA3BAC6F4D3C300B4EE
:100C6600DFBFEEBFD8D6C6C4A3CABDA3BACFD4CA07
:100C7600BEBEF9CEAAA1B02DA1B100B4DFBFEEBFB2
:100C8600D8D6C6C4A3CABDA3BABCE4D0AABFAACD4F
:100C9600A3BBFA00B4DFBFEEBFD8D6C6C4A3CABD95
:100CA600A3BACDA3BBFA00B4DFBFEEC6DABCE4BF7D
:100CB600AABBFAA3BA00B4DFBFEEC6DABCE4CDA382
:100CC600BBFAA3BA00B4DFBFEEC8D5C6DAA3BACE64
:100CD600B4C9E8B6A800B4DFBFEEC8D5C6DAA3BA71
:100CE60000BAC5BFD8D6C6C6F7B0F3B6A8B5C4BA5B
:100CF600C5C2EB3A00BAC5BFD8D6C6C6F73A00D2C7
:100D0600D1B9D8BBFA2100D2D1BFAABBFA210023A0
:100D1600435323B2E9CAB5CAB1CAFDBEDD002343B7
:100D26005923B2E9D1B9BBFAB2CECAFD0023434476
:100D360023B2E9B5E7BBFAB2CECAFD00234354237A
:100D4600B2E9CDA8D0C5B2CECAFD0023435A23B21C
:100D5600E9B5B1C7B0CAB1BCE4002343502320B201
:100D6600E9CFB5CDB3B2CECAFD0023434D2320B2A1
:100D7600E9D2D1B0F3B6A8B5C4CBF9D3D0B9DCC0AB
:100D8600EDD4B1BAC5C2EB002341BAC5C2EB312CD2
:100D9600BAC5C2EB322320B0F3B6A8B9DCC0EDD495
:100DA600B1BAC5C2EB002344BAC5C2EB312CBAC5F1
:100DB600C2EB322320C9BEB3FDD6B8B6A8B9DCC093
:100DC600EDD4B1BAC5C2EB00234423C9BEB3FDCBF3
:100DD600F9D3D0B9DCC0EDD4B1BAC5C2EB00234F0C
:100DE600464623B9D8BBFAD6B8C1EE00234F4E23E8
:100DF600BFAABBFAD6B8C1EE00234B23BFAAC6F4DE
:100E0600B4DFBFEEB9A6C4DC00234B44C4EAC4EA8F
:100E1600C4EAC4EAD4C2D4C2C8D5C8D523C9E8B680
:100E2600A8B4DFBFEEC8D5C6DA00234723B9D8B1C8
:100E3600D5B4DFBFEEB9A6C4DC00235000234100C1
:100E4600234400233F2300234353230023435923F2
:100E56000023434600234348230023434C23002317
:100E660043442300234354230023435A23002343AC
:100E760050230023434D23002343492300234F4699
:100E8600462300234F4E2300234B230023472300F2
:100E9600234B44002B38360023502573230025733B
:100EA60025730A257300B3ACBCB6CAD6BBFABAC55D
:100EB600C2EBD2D1B0F3B6A82100D1E9D6A4B4EDE5
:100EC600CEF32CB2D9D7F7CAA7B0DC2100C8A8CF79
:100ED600DEB2BBB9BB2CB2D9D7F7CAA7B0DC2100AA
:100EE600C3BBD3D0D2AAB0F3B6A8B5C4BAC5C2EBB9
:100EF60000D0C2BCD3B5C4B9DCC0EDD4B1BAC5C24A
:100F0600EBD2D1B4E6D4DA2100BAC5C2EBCAFDC130
:100F1600BFB3ACCFDE2CB2D9D7F7CAA7B0DC21005D
:100F2600B9DCC0EDD4B1BAC5C2EBB0F3B6A8B3C94B
:100F3600B9A621B9B20023442300CBF9D3D0B9DC3A
:100F4600C0EDD4B1BAC5C2EBC9BEB3FDB3C9B9A62B
:100F56002100D2D1C9BEB3FD00B8F6B9DCC0EDD4CC
:100F6600B1BAC5C2EB2100D1B9BBFAB4A5B5E3B994
:100F7600CAD5CFBCECB2E2A3BABDFBD3C300D1B98C
:100F8600BBFAB4A5B5E3B9CAD5CFBCECB2E2A3BAF5
:100F9600C6F4D3C300B9FDD4D8B5E7C1F7D6B5A317
:100FA600BA00B9FDD4D8B1A3BBA4BBD6B8B4B4CEED
:100FB600CAFDA3BA00B4CE2FD0A1CAB100CDA8D025
:100FC600C5C4A3CABDA3BABDF64750525300CDA8A7
:100FD600D0C5C4A3CABDA3BABDF647534D00CDA81C
:100FE600D0C5C4A3CABDA3BA47505253BCB04753D9
:100FF6004D0047534DB7A2CBCDBCE4B8F4A3BA001D
:1010060047505253B7A2CBCDBCE4B8F4A3BA00B74D
:10101600D6D6D300BAC5BFD8D6C6C6F7CEB4B0F3B7
:10102600B6A8C8CEBACEBAC5C2EB00C9E8B1B850A8
:10103600494EC2EBA3BA00C9E8B1B8B1E0C2EBA30E
:10104600BA00BAC5BFD8D6C6C6F7CEAAB9D8BBFAB3
:10105600D7B4CCAC00BDFBD6B9B3ACBCB6BAC5C22E
:10106600EBB6CCD0C5BFAAB9D8BBFA00D7A2A3BAF3
:10107600B5B1C7B0CEAABFAABBFAD7B4CCAC00D71D
:10108600A2A3BAB5B1C7B0CEAAB9D8BBFAD7B4CC69
:10109600AC00BAC5BFD8D6C6C6F7CEAABFAABBFA99
:1010A600D7B4CCAC00B4DFBFEEB9A6C4DCD2D1C68F
:1010B600F4D3C3000AD7A2A3BAB4DFBFEEC8D5C61D
:1010C600DACEB4C9E8B6A800B4DFBFEEB9A6C4DC70
:1010D600D2D1B9D8B1D50025732573257300B4DFF5
:1010E600BFEEC8D5C6DA280029C9E8B6A8B3C9B97B
:1010F600A6000AD7A2A3BAB4DFBFEEB9A6C4DCCE57
:10110600AAC6F4D3C3D7B4CCAC000AD7A2A3BAB448
:10111600DFBFEEB9A6C4DCCEAAB9D8B1D5D7B4CC58
:10112600AC00253036752573002530367525732CB1
:101136000031303031303030303136003131002C32
:1011460000303030303038303033003030303030EE
:1011560034003030303030383030340030303030D9
:101166003039303532003030303030430025732589
:10117600732C00313031303131002D2D00313033B8
:1011860030313100313033303231003130333033A9
:101196003100257325752C00533031303130003045
:1011A600303030303930342C003030303030393057
:1011B600312C0030303030303930332C0025732557
:1011C600642C0030303030303930322C0025732C0E
:1011D600003030303030393036002C257300303056
:1011E6003030303930350030303030304130350035
:1011F600303030303041303100252E3166002575D3
:1012060000FA88D3D9A9797BC8FBF9EB3B729B73AB
:10121600630001090A0B0C0D0E020303FF03E3032F
:10122600D903CC03C903C503C103BD03B903B40382
:10123600B003AB03A503A0039A0394038E038703AD
:10124600800379037103690361035903500347035C
:101256003D0334032A031F0315030A02FF02F302A8
:10126600E702DB02CF02C302B602A9029C028F028A
:1012760082027402670259024B023E0230022202C7
:1012860015020701F901EC01DE01D101C401B70124
:10129600AB019E01920186017A016E01630158013C
:1012A6004D01420138012E0124011A0111010800E5
:1012B600FF00F600EE00E600DE00D700CF00C80013
:1012C600C100BA00B400AE00A800A2009C009700BE
:1012D60092008D00880083007E007A0076007200FE
:1012E6006E006A00660063005F005C002300190060
:1012F6000000260027003A003F0042004500480053
:101306004B004E005100540057005A005F00620027
:1013160067006A006F00720077007A007F00820023
:1013260087008A008F00920097009A009F00A20013
:10133600A700AA00AF00B200B700BA00BF00C20003
:10134600C700CA00CF00D200D700DA00DF00E200F3
:10135600E700EA00EF00F2003F00F700FC00FF01A3
:10136600040107010C010F01140117011C011F01E3
:10137600240127012C012F01340137013C013F01D3
:10138600440147014C014F01540157015C015F01C3
:10139600640167016C016F01740177017C017F01B3
:1013A600840187018C018F004201940199019C01FF
:1013B600A101A401A901AC01B101B401B901BC01AB
:1013C600C101C401C901CC01D101D401D901DC019B
:1013D600E101E401E901EC01F101F401F901FC028A
:1013E6000102040209020C021102140219021C0273
:1013F6002102240229022C0045023102360239025A
:101406003E024102460249024E025102560259026A
:101416005E026102660269026E027102760279025A
:101426007E028102860289028E029102960299024A
:101436009E02A102A602A902AE02B102B602B9023A
:10144600BE02C102C602C9004802CE02D302D602BB
:10145600DB02DE02E302E602EB02EE02F302F60232
:10146600FB02FE03030306030B030E03130316031B
:101476001B031E03230326032B032E03330336030A
:101486003B033E03430346034B034E0353035603FA
:101496005B035E03630366004B036B037003730316
:1014A60078037B038003830388038B0390039303F2
:1014B60098039B03A003A303A803AB03B003B303E2
:1014C600B803BB03C003C303C803CB03D003D303D2
:1014D600D803DB03E003E303E803EB03F003F303C2
:1014E600F803FB04000403004E0408040D04100472
:1014F600150418041D042004250428042D043004B2
:10150600350438043D044004450448044D045004A1
:10151600550458045D046004650468046D04700491
:10152600750478047D048004850488048D04900481
:10153600950498049D04A0005104A504AA04AD04D2
:10154600B204B504BA04BD04C204C504CA04CD0479
:10155600D204D504DA04DD04E204E504EA04ED0469
:10156600F204F504FA04FD05020505050A050D0554
:10157600120515051A051D05220525052A052D0541
:10158600320535053A053D005405420547054A052D
:101596004F05520557055A055F05620567056A0539
:1015A6006F05720577057A057F05820587058A0529
:1015B6008F05920597059A059F05A205A705AA0519
:1015C600AF05B205B705BA05BF05C205C705CA0509
:1015D600CF05D205D705DA08B405DF05E605EF0520
:1015E600F605FD0606060D0614061D0624062B0640
:1015F600320639064006490652065B0663066B0646
:1016060073067C0685068E069706A006A706AE0616
:10161600B506BC06C306CA06D106D806DF06E60628
:10162600ED06F406FB0702070907100717071E0752
:10163600270730073D074A075707640771077E07E4
:101646008B0794079D07A607AF07B807C107CC0706
:10165600D707E007E907F207FB0804080D044D0465
:101666005004CE04D006C904B303CD03CF03D4037C
:10167600C4044803D903DC03D2001B00AD02A50253
:10168600AC02B203CB03D702BB001100170019004E
:10169600AB02A302AA02B002B502B902BD03C90099
:1016A6000B000D000F001502CC02F102F702C10279
:1016B600C302C702CA02EF02F50A030A05044D0473
:1016C6005004CE04D006C904B303CD03CF03D4031C
:1016D600C4044803D903DC03D2001B00AD02A502F3
:1016E600AC02B203CB03D702BB00110017001900EE
:1016F600AB02A302AA02B002B502B902BD03C90039
:101706000B000D000F001502F102F70816081D0860
:1017160024082B0832083908400847084E0855089F
:101726005C0863086A08710878087F0886088D08CF
:1017360094089B08A208A908B008B708BE08C508FF
:10174600CC08D308DA08E108E808EF08F608FD092E
:1017560004090B091209190920044D045004CE048A
:10176600D006C904B303CB03D700AB02A30908090B
:10177600080909080E400E430E460E490E4D0E523C
:101786000E570E5B0E600E650E6A0E6F0E740E79A6
:101796000E7E0E830E890E8E0E920E9603E8006460
:1017A600000A00010102040810204080B9FA88B935
:1017B600FAD3B9FAD9B9FAA9B9FA79B9FA7BB9FA61
:1017C600C8B9FAFBB9FAF9B988FAB98888B9888824
:1017D600B988D3B988D3B988D9B988A9ABFA88ABFF
:1017E600FAD3ABFAD9ABFAA9ABFA79ABFA7BABFA77
:1017F600C8ABFAFB63FA8863FAD363FAD963FAA92A
:1018060063FA7932FA8832FAD332FAD932FAA9323D
:10181600FA7932FA7B9BFA889BFAD39BFAD99BFA20
:10182600A933FA8833FAD333FAD9E39B01E39B0150
:10183600E39B01E39B01E3FAD3E3FAD9E3FAA9E3D5
:10184600FA79E3FA7BE3FAC8E3FA88E3FA88E3FA7B
:0E18560088E3FA888088989A0403000102074C
:1039A9000F96010602040308000000000000000051
:1039B9000061F404D50000000000000000000000D0
:1039C90000000000000000000000000000000000EE
:1039D90000000000000000000000000000000000DE
:1039E90000000000000000000000000000000000CE
:1039F90000000000000000000000000000000000BE
:103A090000000000000000000000000000000000AD
:103A1900000000000000000000000000000000009D
:103A2900000000000000000000000000000000008D
:103A3900000000000000000000000000000000007D
:103A4900000000000000000000000000000000006D
:103A5900000000000000000000000000000000005D
:103A6900000000000000000000000000000000004D
:103A7900000000000000000000000000000000003D
:103A8900000000000000000000000000000000002D
:103A9900000000000000000000000000000000001D
:103AA900000000000000000000000000000000000D
:103AB90000000000000000000000000000000000FD
:103AC90000000000000000000000000000000000ED
:103AD90000000000000000000000000000000000DD
:103AE90000000000000000000000000000000000CD
:103AF90000000000000000000000000000000000BD
:103B090000000000000000000000000000000000AC
:103B1900000000000000000000000000000000009C
:103B2900000000000000000000000000000000008C
:103B3900000000000000000000000000000000007C
:103B4900000000000000000000000000000000006C
:103B5900000000000000000000000000000000005C
:103B6900000000000000000000000000000000004C
:103B7900000000000000000000000000000000003C
:103B8900000000000000000000000000000000002C
:103B9900000000000000000000000000000000001C
:103BA9000000000000000000004102C0004102BF07
:103BB900004102C60041083000410A10004202FAE1
:103BC9000000410A120061F400AF0D00000000007E
:103BD90000000000000000000000000000000000DC
:103BE90000000000000000000000000000000000CC
:103BF90000000000000000000000000000000000BC
:103C090000000000000000000000000000000000AB
:103C1900000000000000000000000000000000009B
:103C2900000000000000000000000000000000008B
:103C3900000000000000000000000000000000007B
:103C4900000000000000000000000000000000006B
:103C5900000000000000000000000000000000005B
:103C6900000000000000000000000000000000004B
:103C7900000000000000000000000000000000003B
:103C8900000000000000000000000000000000002B
:103C9900000000000000000000000000000000001B
:103CA900000000000000000000000000000000000B
:103CB90000000000000000000000000000000000FB
:103CC90000000000000000000000000000000000EB
:103CD90000000000000000000000000000000000DB
:103CE90000000000000000000000000000000000CB
:103CF90000000000000000000000000000000000BB
:103D090000000000000000000000000000000000AA
:103D1900000000000000000000000000000000009A
:103D2900000000000000000000000000000000008A
:103D3900000000000000000000000000000000007A
:103D4900000000000000000000000000000000006A
:103D5900000000000000000000000000000000005A
:103D6900000000000000000000000000000000004A
:103D7900000000000000000000000000000000003A
:103D8900000000000000000000000000000000002A
:103D9900000000000000000000000000000000001A
:103DA900000000000000000000000000000000000A
:103DB9000000000000000000000000000000410AAF
:103DC9001100410778004107075041075D1E41086E
:103DD9001C00410816004102AF004102F4004207ED
:103DE90066000041079A004106F9004102C50041F9
:103DF90002F324420A14000042001300004204D3D3
:103E0900000042082800004202B700004102AE004B
:103E190042077600004103D6004208170000410816
:103E29001D0041081B0041044B004104B200026B14
:103E39000000410790004206FA0000420814000001
:103E4900420819000041093000C1BC4102A70046DF
:103E5900092A00E600E600E642082A000042082C8A
:103E6900000042082E0000410A13004106F80041F3
:103E79000932004104470001240F4809FB2D313064
:103E89002E30A1E600480A082D31302E30A1E60077
:103E99004407593230250046070132302E3041009F
:103EA90046070932302E30410046071132302E3094
:103EB90041004104D20041044A004103D1004104B8
:103EC9004F004106CB004103DB0042044DFFCE42C7
:103ED9000450001E4204CE00004204D000324206C3
:103EE900C900324204B3FF9C4203CD00004203CF14
:103EF900000F4203D400054203C400004203D2006C
:103F09000042044800B44203D908FC4203DC0258C9
:103F190042001B00004200AD00184202A5001942F0
:103F290002AC00054202B200004202BB000142039A
:103F3900CB00FA4203D700C8420011000042001723
:103F4900000042001900004200AB00144202A30025
:103F5900324202AA003C4202B000054202B5000505
:103F69004202B9001E4202BD001E4203C9000042BE
:103F7900000B000042000D000842000F000542003E
:103F89001500034202CC00024202F100004202F78E
:103F990000054202C100014202C300014202C700FA
:103FA900004202CA00004202EF00144202F5000575
:103FB900450A0330303030004108133C4F02E0001D
:103FC900000000000000000000000000000041099E
:103FD90029004506FC00000000004304CB00000056
:103FE90043075600000043075E0000004303C60074
:103FF900000043075300000049079100000000003A
:10400900000000004104CA004102B4004106F70063
:104019004107080041044C004104C8004106CC0096
:104029004104C90041093100410710004107170047
:1040390041070F00410446004102F900410774009D
:10404900410000004100010041000200410003005D
:10405900410004004100050041000600C1B04107CC
:104069007500015632410007054100083C4100092D
:094079001E41000A0A4102C900BF
:10B3CB007E80EF42068EBC7F1EDFFE4306088EBCDE
:10B3DB0000000000E5BC30E4FBAFBD5306E78EBCBC
:01B3EB00223F
:08B37D00E0FAA3E0FB0D7F06DE
:10B385008FC38DC475C78375C50175C65A75C6A5A6
:0FB39500E4F5C7F5C5F5C675C380F5C4AFC22290
:0FB2CA00A3E0FB0D12B2D9A3E0FEEEFB0D7F0651
:10B2D9008FC38DC475C78375C5028BC275C65A7570
:0FB2E900C6A5E4F5C7F5C5F5C675C380F5C42243
:10B42B008FC38DC475C78375C50375C65A75C6A5FD
:0DB43B00E4F5C7F5C5F5C675C380F5C4225C
:10B22800D2B4000000000000000000000000D2B509
:10B23800000000000000000000000000C2B4000090
:10B2480000000000000000000000C2B5000000007F
:09B25800000000000000000022CB
:10B0E400C2B5000000000000000000000000C2B46F
:10B0F400000000000000000000000000D2B50000C5
:10B1040000000000000000000000D2B400000000B5
:10B114000000000000000000D2B5000000000000A4
:07B124000000000000002202
:10B12B000000000000000000000000007E08C2B517
:10B13B00000000000000000000000000EF30E00401
:10B14B00D2B48002C2B40000000000000000000076
:10B15B000000D2B50000000000000000000000005D
:07B16B00EFC313FFDEC82251
:10B1EE0012B2287F4412B12B12B0E4E4FDED90129E
:10B1FE001793FC4304C012B228AF0412B12B74A5EE
:10B20E002DF8E6FCFF12B12B12B0E40DBD0ADE12D2
:0AB21E00B2287F8A12B12B02B0E4BF
:1051C0009002F47432F0900766E07002A3E090075A
:1051D00066700804F0A374F4F08006E4F0A3743C55
:1051E000F09002AFE014B4380040030258BD905173
:1051F000FC75F003A4C58325F0C583730252A40295
:1052000052C50252E60252F90253180253370253B2
:105210005802537902539A0253B90253CC0253F104
:1052200002541802543D0254640254850254A402EC
:1052300054B70254D60254F502551602553502559C
:105240004802556902557C02558F0255AE0255CD74
:105250000255E902560802562702564602566502D2
:1052600056840256A30256C40256D7025706025766
:10527000250257440257630257820257A10257B9C9
:105280000257D10257E90258030258150258270263
:10529000583C02585802587402589002589B0258C1
:1052A000A60258B1C390044EE094F390044DE0641C
:1052B00080948140030258BDA3E004F0707890040C
:1052C0004DE004F022C3900451E094C8900450E0F3
:1052D0006480948040030258BDA3E004F0700690FF
:1052E0000450E004F0229003CDE07002A3E06003DC
:1052F0000258BD9003CD025837C39003D0E09464A8
:105300009003CFE0940040030258BDA3E004F07086
:10531000069003CFE004F022C39003D5E09464909C
:1053200003D4E0940040030258BDA3E004F07006EB
:105330009003D4E004F022C39004CFE0946490047E
:10534000CEE06480948040030258BDA3E004F07076
:10535000069004CEE004F022C39004D1E094C890FB
:1053600004D0E06480948040030258BDA3E004F0C0
:1053700070069004D0E004F022C39006CAE094C8FE
:105380009006C9E06480948040030258BDA3E00405
:10539000F070069006C9E004F022C3900449E0943E
:1053A00058900448E0940240030258BDA3E004F082
:1053B0007006900448E004F0229003C4E07002A359
:1053C000E060030258BD9003C40258379003D9E04F
:1053D000FEA3E0FF7C007D64122D4BC3EF9417EE1B
:1053E000940040030258BDE02464F09003D90256B3
:1053F000039003D9E0FEA3E0FF7C007D64122D4BF7
:10540000C3ED943BEC940040030258BDE004F070FF
:10541000069003D9E004F0229003DCE0FEA3E0FF55
:105420007C007D64122D4BC3EF9417EE9400400373
:105430000258BDE02464F09003DC0256039003DCC4
:10544000E0FEA3E0FF7C007D64122D4BC3ED943B96
:10545000EC940040030258BDE004F070069003DCB9
:10546000E004F022C39004B4E094F39004B3E06449
:1054700080948140030258BDA3E004F070069004BC
:10548000B3E004F022C39003D3E0943C9003D2E055
:10549000940040030258BDA3E004F070069003D2CC
:1054A000E004F02290001BE07002A3E060030258C9
:1054B000BD90001B025837C39000AEE0946490008A
:1054C000ADE0940040030258BDA3E004F0700690E4
:1054D00000ADE004F022C39002A6E094649002A51F
:1054E000E0940040030258BDA3E004F0700690026F
:1054F000A5E004F022C39003CCE094909003CBE0AD
:105500006480948140030258BDA3E004F0700690CB
:1055100003CBE004F022C39002ADE0941E9002ACF5
:10552000E0940040030258BDA3E004F0700690022E
:10553000ACE004F0229002B2E07002A3E06003024B
:1055400058BD9002B2025837C39003D8E094F4904B
:1055500003D7E06480948140030258BDA3E004F0C7
:1055600070069003D7E004F0229002BBE07002A323
:10557000E060030258BD9002BB025837900011E072
:105580007002A3E060030258BD900011025837C3B7
:10559000900018E09463900017E0940040030258D4
:1055A000BDA3E004F07006900017E004F022C39061
:1055B000001AE09463900019E0940040030258BD83
:1055C000A3E004F07006900019E004F022C39000FC
:1055D000ACE094C89000ABE0940040030258BDA337
:1055E000E02405F09000AB801AC39002A4E094C8B8
:1055F0009002A3E0940040030258BDA3E02405F00C
:105600009002A3E03400F022C39002ABE0945990E2
:1056100002AAE0940040030258BDA3E004F0700623
:105620009002AAE004F022C39002B1E09414900228
:10563000B0E0940040030258BDA3E004F07006906F
:1056400002B0E004F022C39002B6E094149002B5D8
:10565000E0940040030258BDA3E004F070069002FD
:10566000B5E004F022C39002BAE0941E9002B9E0C3
:10567000940040030258BDA3E004F070069002B904
:10568000E004F022C39002BEE0941E9002BDE094BC
:105690000040030258BDA3E004F070069002BDE094
:1056A00004F022C39003CAE0940A9003C9E0648026
:1056B000948040030258BDA3E004F070069003C933
:1056C000E004F02290000BE07002A3E060030258B7
:1056D000BD90000B02583790000DE0FEA3E0FF4E96
:1056E000700990000DF0A37403F022C3EF9450EE04
:1056F000940040030258BD90000EE004F070069044
:10570000000DE004F022C3900010E0941E90000F02
:10571000E0940040030258BDA3E004F0700690003E
:105720000FE004F022C3900016E0940A900015E008
:10573000940040030258BDA3E004F07006900015E9
:10574000E004F022C39002CDE094029002CCE094F9
:105750000040030258BDA3E004F070069002CCE0C4
:1057600004F022C39002F2E094189002F1E0940059
:1057700040030258BDA3E004F070069002F1E0047B
:10578000F022C39002F8E0943C9002F7E0940040CD
:10579000030258BDA3E004F070069002F7E004F0A5
:1057A00022900761E0FF70028046EFC39439400306
:1057B0000258BD900761025899900762E0FF70029D
:1057C000802EEFC3943940030258BD9007620258FF
:1057D00099900763E0FF70028016EFC3943940038D
:1057E0000258BD9007630258BA900764E0FF700446
:1057F0007430F022EFC3943940030258BD9007641F
:105800000258BA9002C1E07002A3E060030258BDE2
:105810009002C180229002C3E07002A3E060030204
:1058200058BD9002C380109002C7E07002A3E060F0
:10583000030258BD9002C7F0A304F022C39002CB2C
:10584000E094029002CAE094005072A3E004F07069
:10585000069002CAE004F022C39002F0E094639044
:1058600002EFE094005056A3E004F070509002EF75
:10587000E004F022C39002F6E094639002F5E09415
:1058800000503AA3E004F070349002F5E004F022F6
:10589000900A03E0C394395024801F900A04E0C3A7
:1058A000943950198014900A05E0C39439500E8041
:0E58B00009900A06E0C394395003E004F02288
:1058BE009002F47432F0900766E07002A3E0900755
:1058CE0066700804F0A374F4F08006E4F0A3743C50
:1058DE00F09002AFE014B438004003025F3D9058E0
:1058EE00FA75F003A4C58325F0C583730259A2028D
:1058FE0059C10259E00259F4025A11025A2E025AA3
:10590E004D025A6C025A8B025AA5025AB9025AD942
:10591E00025AF9025B19025B39025B58025B720292
:10592E005B86025BA0025BBA025BD9025BF3025C90
:10593E0007025C26025C37025C4B025C65025C7FF0
:10594E00025C99025CB3025CD0025CED025D0A025D
:10595E005D27025D44025D63025D77025DA0025D1C
:10596E00BD025DDA025DF4025E0E025E28025E404A
:10597E00025E58025E70025E8A025E9D025EB00298
:10598E005EC5025EDB025EF4025F10025F1B025F09
:10599E0026025F31D390044EE0940D90044DE064E6
:1059AE0080947E5003025F3DA3E024FFF090044DEF
:1059BE00025F0BD3900451E09401900450E0648098
:1059CE0094805003025F3DA3E024FFF09004500248
:1059DE005F0B9003CDE07002A3E07003025F3DE425
:1059EE009003CD025EC1D39003D0E094019003CF1B
:1059FE00E094005003025F3DA3E024FFF09003CF3C
:105A0E00025F0BD39003D5E094019003D4E0940091
:105A1E005003025F3DA3E024FFF09003D4025F0B1E
:105A2E00D39004CFE0949C9004CEE06480947F5099
:105A3E0003025F3DA3E024FFF09004CE025F0BD380
:105A4E009004D1E0940A9004D0E0648094805003D6
:105A5E00025F3DA3E024FFF09004D0025F0BD390D1
:105A6E0006CAE0940A9006C9E0648094805003024E
:105A7E005F3DA3E024FFF09006C9025F0B9004483F
:105A8E00E07002A3E07003025F3D900449E024FF42
:105A9E00F0900448025F0B9003C4E07002A3E07024
:105AAE0003025F3DE49003C4025EC19003D9E0FEA1
:105ABE00A3E0FF7C007D64122D4BEF4E7003025F5E
:105ACE003DE0249CF09003D9025F0B9003D9E0FED9
:105ADE00A3E0FF7C007D64122D4BED4C7003025F42
:105AEE003DE024FFF09003D9025F0B9003DCE0FE53
:105AFE00A3E0FF7C007D64122D4BEF4E7003025F1E
:105B0E003DE0249CF09003DC025F0B9003DCE0FE92
:105B1E00A3E0FF7C007D64122D4BED4C7003025F01
:105B2E003DE024FFF09003DC025F0BD39004B4E061
:105B3E00940D9004B3E06480947E5003025F3DA305
:105B4E00E024FFF09004B3025F0B9003D2E07002EA
:105B5E00A3E07003025F3D9003D3E024FFF09003B7
:105B6E00D2025F0B90001BE07002A3E07003025F95
:105B7E003DE490001B025EC19000ADE07002A3E018
:105B8E007003025F3D9000AEE024FFF09000AD0286
:105B9E005F0B9002A5E07002A3E07003025F3D90E0
:105BAE0002A6E024FFF09002A5025F0BD39003CC77
:105BBE00E094009003CBE0648094805003025F3D3C
:105BCE00A3E024FFF09003CB025F0B9002ACE070D9
:105BDE0002A3E07003025F3D9002ADE024FFF0905F
:105BEE0002AC025F0B9002B2E07002A3E0700302FF
:105BFE005F3DE49002B2025EC1D39003D8E0940AF6
:105C0E009003D7E0648094805003025F3DA3E024AC
:105C1E00FFF09003D7025F0B9002BBE07002A3E08F
:105C2E006007E49002BBF0A3F0900011E07002A3B5
:105C3E00E07003025F3DE4900011025EC190001718
:105C4E00E07002A3E07003025F3D900018E024FFB5
:105C5E00F0900017025F0B900019E07002A3E07045
:105C6E0003025F3D90001AE024FFF0900019025FDE
:105C7E000B9000ABE07002A3E07003025F3D90005A
:105C8E00ACE024FBF09000AB025F0B9002A3E0703F
:105C9E0002A3E07003025F3D9002A4E024FBF090AB
:105CAE0002A3025F0BD39002ABE094149002AAE021
:105CBE0094005003025F3DA3E024FFF09002AA027D
:105CCE005F0BD39002B1E094019002B0E0940050CB
:105CDE0003025F3DA3E024FFF09002B0025F0BD3FE
:105CEE009002B6E094019002B5E094005003025F7A
:105CFE003DA3E024FFF09002B5025F0BD39002BAF1
:105D0E00E094019002B9E094005003025F3DA3E0DD
:105D1E0024FFF09002B9025F0BD39002BEE0940113
:105D2E009002BDE094005003025F3DA3E024FFF01B
:105D3E009002BD025F0BD39003CAE094F69003C9A4
:105D4E00E06480947F5003025F3DA3E024FFF09057
:105D5E0003C9025F0B90000BE07002A3E070030218
:105D6E005F3DE490000B025EC190000DE0FEA3E0EB
:105D7E00FFD39403EE9400400AE024FFF090000D50
:105D8E00025F0BEF64034E6003025F3D90000D0255
:105D9E005EC1D3900010E0940090000FE09400508C
:105DAE0003025F3DA3E024FFF090000F025F0BD3D0
:105DBE00900016E09401900015E094005003025FED
:105DCE003DA3E024FFF0900015025F0B9002CCE0A3
:105DDE007002A3E07003025F3D9002CDE024FFF05D
:105DEE009002CC025F0B9002F1E07002A3E0700310
:105DFE00025F3D9002F2E024FFF09002F1025F0B91
:105E0E009002F7E07002A3E07003025F3D9002F88B
:105E1E00E024FFF09002F7025F0B900761E0FF7045
:105E2E00028046EFD394305003025F3D900761022B
:105E3E005F19900762E0FF7002802EEFD39430500E
:105E4E0003025F3D900762025F19900763E0FF70E7
:105E5E00028016EFD394305003025F3D9007630229
:105E6E005F3A900764E0FF70047430F022EFD39431
:105E7E00305003025F3D900764025F3A9002C1E02A
:105E8E007002A3E07003025F3DE49002C180249093
:105E9E0002C3E07002A3E07003025F3DE49002C310
:105EAE0080119002C7E07002A3E07003025F3DE430
:105EBE009002C7F0A3F0229002CAE07002A3E06045
:105ECE006E9002CBE024FFF09002CA8030D3900295
:105EDE00F0E094019002EFE094004053A3E024FF21
:105EEE00F09002EF8017D39002F6E094019002F545
:105EFE00E09400403AA3E024FFF09002F5E034FF76
:105F0E00F022900A03E0D394304024801F900A04BC
:105F1E00E0D3943040198014900A05E0D3943040B9
:105F2E000E8009900A06E0D394304003E014F0226C
:10B1B200E57260377572FAE56590177393652460DE
:10B1C20004E4F57222E5656406701E900A13740D9C
:10B1D200F07D017F0212B42B7F0412B42B7F081280
:0CB1E200B42BD2837F0F02B3EC05652272
:10AA7A00C24990076CE0FEA3E0D394C8EE9400406C
:10AA8A0075A3E0FAA3E0FBD394C8EA94004067A355
:10AA9A00E0FCA3E0FDD394C8EC9400405990076C05
:10AAAA00A3E024FEFFEE34FF90092AF0A3EFF0EBB7
:10AABA0024FEFEEA34FFA3F0A3CEF0ED24FEFEEC62
:10AACA0034FFA3F0A3CEF07D017F0612B42B9009C8
:10AADA002AE0FEEEFB7F0612B2D990092A12B2CA08
:10AAEA0090092C12B2CA90092EA3E0FB0D12B2D91A
:07AAFA007BDC0D12B2D92232
:1096140090081C740AF0900930E06006203A03D2E6
:109624003A22900766E07002A3E070069006F9748F
:1096340028F0900813E06003743CF0E524640360B0
:10964400030296D130490612AA7A0296D1900813E1
:10965400E07003743CF09002AFE07014900816744C
:109664001EF090081C7480F09007797401F0805DFE
:109674009002AFE004F09002F47432F09002AFE094
:10968400FFB42B11E4900764F0900763F090076235
:10969400F0900761F0EFB42F1B78617C077D017BAC
:1096A400017A0A79031230D6EF6009E49002AFF030
:1096B4009002F4F09002AFE0D394384006E4F090C6
:1096C40002F4F09002AFE0B411037424F0E524B482
:1096D40009269002AFE0701DE57270057572FAF507
:1096E40065900816741EF090081C7480F090077939
:1096F4007402F080031251C0E524B4081D9002AF37
:10970400E070149008167432F090081C7480F09085
:1097140007797403F080031258BEE524640270696B
:10972400900A13E0FFD39401400720495CD249809A
:1097340058EF7055900813E0604F9002F47432F0C3
:1097440090079AE0640160097401F09002AFF08020
:10975400389002AFE024FE601324FB601714601CF1
:10976400240770259002AF7402F0801D9002AF743C
:1097740007F080159002AF7408F0800DE49002AFFA
:10978400F090079AF09002F4F0E52470493049080B
:10979400C249900A13F0803E900A13E07038900892
:1097A40013E060329002F47432F090079AE064039C
:1097B400600B7403F09002AF7425F080069002AF42
:1097C400E004F09002AFE0D39426400AE4F090075E
:1097D4009AF09002F4F0900707E0600312B1B2220D
:10AD9700E524640F606390081CE024FE601524819D
:10ADA7006027248170629008167419F090081C744B
:10ADB70001F02290081C7409F0900A13E0640170F6
:10ADC70047F090081C740AF022900779E0FFB4015D
:10ADD700139002AF7401F0E490079AF09002F474B4
:10ADE70032F0800EEFB4020A9002F3E0B40103746C
:10ADF70002F090081C7482F022E490081CF090077F
:09AE070066F0A3F0900779F02237
:10B04F00E4FD7F0212B42B7B5A12B2D9E4FEEE2537
:10B05F00E02463F582E43416F583E493FC740193E2
:10B06F008C2CF52DEE25E004FD852D82852C83E0BB
:10B07F00FB7F0212B2D9EE25E02402FD852D8285D9
:0DB08F002C83A3E0FB12B2D90EBE30C2220A
:0FB09C007533017534097535337B017A07797A7D
:10B0AB008B308A318932753BFF753C09753D278B97
:10B0BB003E8A3F89407B017A0279E0127658753BD4
:10B0CB00FF753C09753D2785333E85343F853540FB
:09B0DB007B017A00791D02765810
:1099A2008F2DED30E003029AD1E563705374332FAB
:1099B200F9E43409FA7B01C003753BFF753C097574
:1099C2003D2A753EFF753F0975402F8B417542094F
:1099D2007543FBD003127658EF252DF52D2433F96C
:1099E200E43409FA7B01753BFF753C09753D367518
:1099F2003EFF753F00754067127658EF252DF52D15
:109A02007433252DF9E43409FA7B01C003753BFF59
:109A1200753C09753D2A753EFF753F0975403A8BC5
:109A220041754207754301D003127658EF252DF593
:109A32002D2433F9E43409FA7B01753BFF753C09A7
:109A4200753D27753EFF753F09754040127658EF08
:109A5200252DF52D2433F9E43409FA7B01C0037571
:109A62003BFF753C09753D2A753EFF753F09754000
:109A7200438B41754207754309D003127658EF258F
:109A82002DF52D2433F9E43409FA7B01753BFF757A
:109A92003C09753D27753EFF753F097540401276BA
:109AA20058EF252DF52D2433F9E43409FA7B01C052
:109AB20003753BFF753C09753D49753EFF753F09CE
:109AC20075404F8B41754207754311D00380367440
:109AD20033252DF9E43409FA7B01C002753BFF7589
:109AE2003C09753D369004D2E025E024DFF582E49E
:109AF2003415F583E493FE740193AA06753EFF8A3A
:0E9B02003FF540D002127658EF252DF52D22AA
:10A74100753BFF753C09753D55753E01753F0775B4
:10A75100404A7541FF75420975435B7B017A09796E
:10A76100331276588F2C74332FF9E43409FA7B01B4
:10A77100C002753BFF753C09753D369003DBE02552
:10A78100E02431F582E43416F583E493FE740193F9
:10A79100AA06753EFF8A3FF540D002127658EF2592
:10A7A1002CF52C9004CAE0FDAF2C1299A29004CA9A
:10A7B100E004C313FF900929E0C39FFFE49400FE66
:10A7C10074312FF58274083EF583E075F00DA424F1
:10A7D100DEF9740335F0FA7B01C0038B337534095C
:0FA7E100753533D00312B0AB9004CAE014F022E8
:10AE8400753BFF753C09753D55753E01753F07756A
:10AE9400404A7541FF7542097543647B017A09791B
:10AEA400331276589002B4E0FD1299A29002B4E0F5
:10AEB40004C313FF900929E0C39FFFE49400FE74C8
:10AEC400312FF58274083EF583E075F00DA424DE7D
:10AED400F9740335F0FA7B01C0038B3375340975BB
:0EAEE4003533D00312B0AB9002B4E014F0226C
:10B26100753BFF753C09753D55753E01753F077589
:10B27100404A7541FF7542097543647B017A09793A
:10B28100331276589006F7E0FD1299A212B09C9005
:06B2910006F7E014F022B4
:1065A700900708E06404600302672A753BFF753CA7
:1065B70009753D55753E01753F0775404A7541FFA1
:1065C70075420975436F7B017A0979331276588FC3
:1065D7002C74332FF9E43409FA7B01C003C002C0DD
:1065E70001753BFF753C09753D7C753EFF753F099D
:1065F70075408390044DE0FCA3E0FDEC12289CE479
:10660700FBFA792078411227FA8F448E438D428C0A
:1066170041D001D002D003127658EF252CF52C2457
:1066270033F9E43409FA7B01753BFF753C09753D85
:1066370036753EFF753F00754067127658EF252C7B
:10664700F52C2433F9E43409FA7B01C003C002C0F6
:1066570001753BFF753C09753D7C753EFF753F092C
:1066670075408E900450E0FCA3E0FDEC12289CE4FA
:10667700FBFA792078411227FA8F448E438D428C9A
:1066870041D001D002D003127658EF252CF52C24E7
:1066970033F9E43409FA7B01753BFF753C09753D15
:1066A70036753EFF753F00754067127658EF252C0B
:1066B700F52C9003CDE07002A3E0701F7433252CF6
:1066C700F9E43409FA7B01753BFF753C09753D36E2
:1066D700753EFF753F09754099801D7433252CF968
:1066E700E43409FA7B01753BFF753C09753D367546
:1066F7003EFF753F097540AA127658EF252CF52CF9
:106707007433252CF9E43409FA7B01753BFF753C9A
:1067170009753DBF753EFF753F097540C69003CFAC
:10672700026B63900708E0640360030268F7753B38
:10673700FF753C09753D55753E01753F0775404A24
:106747007541FF75420975436F7B017A09793312E9
:1067570076588F2C74332FF9E43409FA7B01753B93
:10676700FF753C09753DD9753EFF753F097540DEDC
:106777009003D4E0F541A3E0F542127658EF252CBB
:10678700F52C2433F9E43409FA7B01753BFF753C9A
:1067970009753D36753EFF753F017540A112765864
:1067A700EF252CF52C2433F9E43409FA7B01C003D7
:1067B700C002C001753BFF753C09753D7C753EFF06
:1067C700753F097540F19004CEE0FCA3E0FDEC12A3
:1067D700289CE4FBFA792078411227FA8F448E43EC
:1067E7008D428C41D001D002D003127658EF252C70
:1067F700F52C2433F9E43409FA7B01753BFF753C2A
:1068070009753D36753EFF753F007540671276582E
:10681700EF252CF52C2433F9E43409FA7B01C00366
:10682700C002C001753BFF753C09753D7C753EFF95
:10683700753F097540FC9004D0E0FCA3E0FDEC1225
:10684700289CE4FBFA792078411227FA8F448E437B
:106857008D428C41D001D002D003127658EF252CFF
:10686700F52C2433F9E43409FA7B01753BFF753CB9
:1068770009753D36753EFF753F00754067127658BE
:10688700EF252CF52C2433F9E43409FA7B01C003F6
:10689700C002C001753BFF753C09753D7C753EFF25
:1068A700753F0A75400B9006C9E0FCA3E0FDEC12AA
:1068B700289CE4FBFA792078411227FA8F448E430B
:1068C7008D428C41D001D002D003127658EF252C8F
:1068D700F52C2433F9E43409FA7B01753BFF753C49
:1068E70009753D27753EFF753F00754067026B735D
:1068F700900708E064026003026AAE753BFF753CCF
:1069070009753D55753E01753F0775404A7541FF4D
:1069170075420975436F7B017A0979331276588F6F
:106927002C74332FF9E43409FA7B01753BFF753C6E
:1069370009753DD9753EFF753F0A75401A900448A1
:10694700E0F541A3E0F542127658EF252CF52C240B
:1069570033F9E43409FA7B01753BFF753C09753D52
:1069670036753EFF753F0375403B127658EF252C71
:10697700F52C9003C4E07002A3E0701F7433252C3C
:10698700F9E43409FA7B01753BFF753C09753D361F
:10699700753EFF753F0A754029801D7433252CF914
:1069A700E43409FA7B01753BFF753C09753D367583
:1069B7003EFF753F0A75403C127658EF252CF52CA3
:1069C7007433252CF9E43409FA7B01753BFF753CD8
:1069D7000A753D4F753EFF753F0A7540589003D9BC
:1069E700E0FEA3E0FF7C007D64122D4B8E418F42B9
:1069F7007543FF7544037545D8127658EF252CF576
:106A07002C2433F9E43409FA7B01753BFF753C0A02
:106A1700753D679003D9E0FEA3E0FF7C007D64121B
:106A27002D4B8C3E8D3F7540FF7541017542A1127C
:106A37007658EF252CF52C2433F9E43409FA7B0139
:106A4700753BFF753C0A753D4F753EFF753F0A75EF
:106A5700406F9003DCE0FEA3E0FF7C007D64122D15
:106A67004B8E418F427543FF7544037545D81276A7
:106A770058EF252CF52C2433F9E43409FA7B0175FA
:106A87003BFF753C0A753D7E9003DCE0FEA3E0FF0B
:106A97007C007D64122D4B8C3E8D3F7540FF754108
:106AA700017542A1026B73753BFF753C09753D5536
:106AB700753E01753F0775404A7541FF7542097577
:106AC700436F7B017A0979331276588F2C74332FF1
:106AD700F9E43409FA7B01C003C002C001753BFF2A
:106AE700753C09753D7C753EFF753F0A754085907D
:106AF70004B3E0FCA3E0FDEC12289CE4FBFA792048
:106B070078411227FA8F448E438D428C41D001D0B1
:106B170002D003127658EF252CF52C2433F9E434F0
:106B270009FA7B01753BFF753C09753D36753EFFDC
:106B3700753F00754067127658EF252CF52C2433E6
:106B4700F9E43409FA7B01753BFF753C09753DBFD4
:106B5700753EFF753F0A7540949003D2E0F541A357
:106B6700E0F5427543FF7544017545A1127658EF6C
:0E6B7700252CF52C12B09C900708E014F0229B
:1085F30090044CE06402600302874B753BFF753CBB
:1086030009753D55753E01753F0775404A7541FF34
:1086130075420A7543A77B017A0979331276588F1D
:108623002C90001BE07002A3E0701F7433252CF91B
:10863300E43409FA7B01753BFF753C09753D3675DA
:108643003EFF753F0A7540B4801D7433252CF9E451
:108653003409FA7B01753BFF753C09753D36753E60
:10866300FF753F0A7540C5127658EF252CF52C741B
:1086730033252CF9E43409FA7B01753BFF753C097A
:10868300753DBF753EFF753F0A7540D89000ADE05C
:10869300F541A3E0F5427543FF75440A7545E312BE
:1086A3007658EF252CF52C2433F9E43409FA7B01B1
:1086B300753BFF753C09753DBF753EFF753F0A75F8
:1086C30040E99002A5E0F541A3E0F5427543FF754B
:1086D300440A7545F4127658EF252CF52C2433F90A
:1086E300E43409FA7B01C003C002C001753BFF7586
:1086F3003C09753D7C753EFF753F0A7540F8900354
:10870300CBE0FCA3E0FDEC12289CE4FBFA79207893
:10871300411227FA8F448E438D428C41D001D002FF
:10872300D003127658EF252CF52C2433F9E43409C1
:10873300FA7B01753BFF753C09753D27753EFF7557
:108743003F007540670288AE753BFF753C09753D78
:1087530055753E01753F0775404A7541FF75420ADD
:108763007543A77B017A0979331276588F2C7433BA
:108773002FF9E43409FA7B01753BFF753C09753D1C
:10878300BF753EFF753F0B7540079002ACE0F541A6
:10879300A3E0F5427543FF7544017545A112765870
:1087A300EF252CF52C9002B2E07002A3E0701F7449
:1087B30033252CF9E43409FA7B01753BFF753C0939
:1087C300753D36753EFF753F0B754016801D74333E
:1087D300252CF9E43409FA7B01753BFF753C0975D7
:1087E3003D36753EFF753F0B754031127658EF25C8
:1087F3002CF52C7433252CF9E43409FA7B01C003DE
:10880300C002C001753BFF753C09753D7C753EFF99
:10881300753F0B75404C9003D7E0FCA3E0FDEC12D1
:10882300289CE4FBFA792078411227FA8F448E437F
:108833008D428C41D001D002D003127658EF252C03
:10884300F52C2433F9E43409FA7B01753BFF753CBD
:1088530009753D36753EFF753F00754067127658C2
:10886300EF252CF52C9002BBE07002A3E0601F748F
:1088730033252CF9E43409FA7B01753BFF753C0978
:10888300753D27753EFF753F0B75405B801D743347
:10889300252CF9E43409FA7B01753BFF753C097516
:1088A3003D27753EFF753F0B754074127658EF25D3
:0D88B3002CF52C12B09C90044CE014F02227
:109222009004C8E064016003029434753BFF753C0E
:1092320009753D55753E01753F0775404A7541FFF9
:1092420075420B75438D7B017A0979331276588FFB
:109252002C74332FF9E43409FA7B01753BFF753C1A
:1092620009753DD9753EFF753F0B75409A9002AA6C
:10927200E0F541A3E0F542127658EF252CF52C24B7
:1092820033F9E43409FA7B01753BFF753C09753DFE
:1092920036753EFF753F0B7540A5127658EF252CAB
:1092A200F52C2433F9E43409FA7B01753BFF753C54
:1092B20009753DD9753EFF753F0B7540A79002B009
:1092C200E0F541A3E0F542127658EF252CF52C2467
:1092D20033F9E43409FA7B01753BFF753C09753DAE
:1092E20036753EFF753F0B7540A5127658EF252C5B
:1092F200F52C2433F9E43409FA7B01753BFF753C04
:1093020009753DD9753EFF753F0B7540B09002B5AA
:10931200E0F541A3E0F542127658EF252CF52C2416
:1093220033F9E43409FA7B01753BFF753C09753D5D
:1093320036753EFF753F0B7540A5127658EF252C0A
:10934200F52C2433F9E43409FA7B01753BFF753CB3
:1093520009753DD9753EFF753F0B7540B99002B94D
:10936200E0F541A3E0F542127658EF252CF52C24C6
:1093720033F9E43409FA7B01753BFF753C09753D0D
:1093820036753EFF753F0B7540A5127658EF252CBA
:10939200F52C2433F9E43409FA7B01753BFF753C63
:1093A20009753DD9753EFF753F0B7540C69002BDEC
:1093B200E0F541A3E0F542127658EF252CF52C2476
:1093C20033F9E43409FA7B01753BFF753C09753DBD
:1093D20036753EFF753F0B7540A5127658EF252C6A
:1093E200F52C2433F9E43409FA7B01753BFF753C13
:1093F2000B753DD3753EFF753F0B7540D89003C981
:10940200E0F541A3E0F542127658EF252CF52C2425
:1094120033F9E43409FA7B01753BFF753C09753D6C
:1094220027753EFF753F0B7540A5127658EF252C28
:0C943200F52C12B09C9004C8E014F0224D
:10830B009006CCE064026003028452753BFF753C1F
:10831B0009753D55753E01753F0775404A7541FF1F
:10832B0075420B7543E37B017A0979331276588FCB
:10833B002C74332FF9E43409FA7B01C003753BFF2E
:10834B00753C09753D55753EFF753F0B7540F08BC0
:10835B004175420A754303D003127658EF252CF56D
:10836B002C9002C1E07002A3E0701F7433252CF92E
:10837B00E43409FA7B01753BFF753C09753D367595
:10838B003EFF753F0B7540FF801D7433252CF9E4C0
:10839B003409FA7B01753BFF753C09753D36753E1B
:1083AB00FF753F0C75400E127658EF252CF52C906F
:1083BB0002C3E07002A3E0701F7433252CF9E43480
:1083CB0009FA7B01753BFF753C09753D36753EFF20
:1083DB00753F0C75401D801D7433252CF9E4340951
:1083EB00FA7B01753BFF753C09753D36753EFF7594
:1083FB003F0C754032127658EF252CF52C9002C7A6
:10840B00E07002A3E070207433252CF9E43409FAF0
:10841B007B01753BFF753C09753D36753EFF753F1E
:10842B000C7540470285E17433252CF9E43409FAC5
:10843B007B01753BFF753C09753D27753EFF753F0D
:10844B000C7540560285E1753BFF753C09753D5532
:10845B00753E01753F0775404A7541FF75420B75B7
:10846B0043E37B017A0979331276588F2C9002CA39
:10847B00E07002A3E0701F7433252CF9E43409FA81
:10848B007B01753BFF753C09753D36753EFF753FAE
:10849B000C75406580489002CAE07004A3E064014B
:1084AB00701F7433252CF9E43409FA7B01753BFFFB
:1084BB00753C09753D36753EFF753F0C75408180E7
:1084CB001D7433252CF9E43409FA7B01753BFF75D8
:1084DB003C09753D36753EFF753F0C75409A12761B
:1084EB0058EF252CF52C7433252CF9E43409FA7B41
:1084FB0001753BFF753C09753DD9753EFF753F0C0A
:10850B007540AD9002EFE0F541A3E0F542127658CD
:10851B00EF252CF52C2433F9E43409FA7B01753B58
:10852B00FF753C09753D36753EFF753F017540A1E2
:10853B00127658EF252CF52C2433F9E43409FA7B09
:10854B0001753BFF753C09753DD9753EFF753F0CB9
:10855B007540BC9002F5E0F541A3E0F54212765868
:10856B00EF252CF52C2433F9E43409FA7B01753B08
:10857B00FF753C09753D36753EFF753F017540A192
:10858B00127658EF252CF52C900791E0701F743361
:10859B00252CF9E43409FA7B01753BFF753C097511
:1085AB003D27753EFF753F0C7540CB8029743325F5
:1085BB002CF9E43409FA7B01C003753BFF753C09C8
:1085CB00753D2A753EFF753F0C7540DC8B4175423E
:1085DB0007754391D003127658EF252CF52C12B06A
:0885EB009C9006CCE014F02284
:1097E400753BFF753C09753D55753E01753F077521
:1097F400404A7541FF75420C7543E77B017A09794C
:10980400331276588F2C9004C9E0FF20E7030298A6
:10981400FD6482706B752D017433252CF9E43409D1
:10982400FA7B01C003C001753BFF753C09753D36E9
:109834007431252DF582E43408F583E075F00DA428
:1098440024DEF9740335F08B3EF53F8940D001D016
:1098540003127658EF252CF52C052DE52DC3940421
:1098640040B67433252CF9E43409FA7B01C003C0F3
:1098740001753BFF753C09753D27900835029974C5
:10988400752D05900929E014FFE52DC39F504574FB
:1098940033252CF9E43409FA7B01C003C001753B7C
:1098A400FF753C09753D367431252DF582E4340885
:1098B400F583E075F00DA424DEF9740335F08B3ED6
:1098C400F53F8940D001D003127658EF252CF52CB2
:1098D400052D80AF7433252CF9E43409FA7B01C0DB
:1098E40003C001753BFF753C09753D277431252D77
:1098F400F582E43408F5838077752D01900929E019
:1099040014FFE52DC39F50457433252CF9E4340925
:10991400FA7B01C003C001753BFF753C09753D36F8
:109924007431252DF582E43408F583E075F00DA437
:1099340024DEF9740335F08B3EF53F8940D001D025
:1099440003127658EF252CF52C052D80AF743325A2
:109954002CF9E43409FA7B01C003C001753BFF759F
:109964003C09753D277431252DF582E43408F583CF
:10997400E075F00DA424DEF9740335F08B3EF53F59
:109984008940D001D003127658EF252CF52C12B063
:0E9994009C9004C9E014F0E0540F7001F02222
:10AC9300753BFF753C09753D55753E01753F07755D
:10ACA300404A7541FF75420C7543FB7B017A097974
:10ACB3003312765874332FF9E43409FA7B01753B68
:10ACC300FF753C09753D27753EFF753F0D754005C2
:10ACD300127658900931E0FF900929E0C39FFFE401
:10ACE3009400FE74312FF58274083EF583E075F00D
:10ACF3000DA424DEF9740335F0FA7B01C0038B3312
:10AD0300753409753533D00312B0AB900931E014B3
:02AD1300F0222C
:10AD1500753BFF753C09753D55753E01753F0775DA
:10AD2500404A7541FF75420C7543FB7B017A0979F1
:10AD35003312765874332FF9E43409FA7B01753BE5
:10AD4500FF753C09753D27753EFF753F0D75400D37
:10AD5500127658900710E0FF900929E0C39FFFE4A1
:10AD65009400FE74312FF58274083EF583E075F08A
:10AD75000DA424DEF9740335F0FA7B01C0038B338F
:10AD8500753409753533D00312B0AB900710E01454
:02AD9500F022AA
:10900300900717E0247F70030291451470030290C8
:10901300C314600724826003029212753BFF753C00
:1090230009753D36753EFF753F0D7540157B017A19
:109033000979331276588F2C74332FF9E43409FAF3
:109043007B01753BFF753C09753D36753EFF753FEA
:109053000D754024127658EF252CF52C2433F9E4B2
:109063003409FA7B01753BFF753C09753D36753E46
:10907300FF753F0D754033127658EF252CF52C24E0
:1090830033F9E43409FA7B01753BFF753C09753DFF
:1090930036753EFF753F0D754042127658EF252C0D
:1090A300F52C2433F9E43409FA7B01753BFF753C55
:1090B30009753D27753EFF753F0D75405102920AB4
:1090C300753BFF753C09753D36753EFF753F0D7564
:1090D30040607B017A0979331276588F2C74332FD1
:1090E300F9E43409FA7B01753BFF753C09753D369C
:1090F300753EFF753F0D754070127658EF252CF5C0
:109103002C2433F9E43409FA7B01753BFF753C09E0
:10911300753D36753EFF753F0D75408E127658EFDF
:10912300252CF52C2433F9E43409FA7B01753BFF34
:10913300753C09753D27753EFF753F0D7540AC02C3
:10914300920A753BFF753C09753D36753EFF753FC9
:109153000D7540CE7B017A0979331276588F2C74C2
:10916300332FF9E43409FA7B01753BFF753C09752C
:109173003D36753EFF753F0D7540E4127658EF2579
:109183002CF52C2433F9E43409FA7B01753BFF7584
:109193003C09753D36753EFF753F0D7540F21276FD
:1091A30058EF252CF52C2433F9E43409FA7B0175A7
:1091B3003BFF753C09753D36753EFF753F0D7540A8
:1091C300FF127658EF252CF52C2433F9E43409FAF1
:1091D3007B01753BFF753C09753D36753EFF753F59
:1091E3000E75400F127658EF252CF52C2433F9E435
:1091F3003409FA7B01753BFF753C09753D27753EC4
:10920300FF753F0E754030127658EF252CF52C1262
:0F921300B09C900717E014F0E0540F7001F022A8
:10B17200E4FD7F0412B42B7BCC12B2D9E4FEE4FCD2
:10B18200EE75F00DA424DEF582E43403F583E58246
:10B192002CF582E43583F583E0FBEE75F00DA42CEB
:10B1A20004FD7F0412B2D90CBC0DD50EBE08CF220D
:101864009002C57404F07BFF7A0E799AE4F53CF596
:101874003DFFFE12A3A48F2C7E007B017A0479D550
:1018840075350775367A12AB887E097F337D02126F
:10189400A16A900933E0642360030227F67B017A8E
:1018A40009793312B29D74322FF58274093EF5839F
:1018B400E0642360030227F6E4F52CE52C25E024FC
:1018C4007AF582E43417F583E493FE740193AA064F
:1018D400F97BFFE4F53CF53DFFFE12A3A4EF4E7047
:1018E40009052CE52CC3941440D1E52CC394144071
:1018F400030227F6E52CB4140040030227F69019DE
:1019040009F82828730219450219D8021BB8021CC9
:10191400BC021D0D021D590227F60227F60227F606
:10192400021DA3021EC302201F0221890221C30239
:1019340022430223070224160225250225EC02264F
:1019440088753BFF753C0E753D9E753E01753F0ADB
:101954007540037B017A0B79E112765878E17C0BB0
:101964007D017B017A0979331230D6EF705A753BC9
:10197400FF753C09753D27753E01753F0775407A33
:101984007B017A0379DE127658753BFF753C0E7540
:101994003DA4753E01753F0775404A7541FF754288
:1019A4000975435B7544FF75450E7546AC7B017A3A
:1019B4000979331276587533017534097535337BDB
:1019C400017A07797A021CB67533FF75340E7535C2
:1019D400C002218678DE7C037D017B017A07797A57
:1019E4001230D6EF600C7533FF75340E7535D302A3
:1019F4002186AF2C7E007B017A0979337535077512
:101A0400367A12AB88EF4E700C7533FF75340E7551
:101A140035E60227EDE4F52C74E1252CF582E43457
:101A24000BF583E4F0052CE52CB408ECE4F52CF577
:101A34002D7B017A09793312B29DAC06AD07AF2C28
:101A44007E00C3EF9DEE9C50607B017A097933756B
:101A5400350775367A12AB888F2CE52C604B752EC2
:101A640001E52E75F00DA424DEF9740335F0FA7B3C
:101A740001787A7C077D011230D6EF6007052EE5E8
:101A84002EB408DDE52EB408A87B017A07797A1212
:101A9400B29DC3E52C9FFFAE2D052D74E12EF5827A
:101AA400E4340BF583EFF08088E52D700C7533FF7B
:101AB40075340E7535F70227EDE4F52F752E01E523
:101AC4002E75F00DA424DEF582E43403F583E06082
:101AD40002052F052EE52EB408E5E52D252FD39418
:101AE40007400C7533FF75340F75350F0227ED75FC
:101AF4002C01E4F52EE52EC3952D504FE52CC3940F
:101B0400085016E52C75F00DA424DEF582E43403A8
:101B1400F583E06004052C80E374E1252EF582E46E
:101B2400340BF583E0FF7E007B017A097933AD2C19
:101B3400052CED75F00DA424DEF582E43403AD82AA
:101B4400F5358D3612AB88052E80AA753BFF753CA2
:101B540009753D55753E01753F0775404A7541FF4E
:101B640075420975435B7B017A0979331276588F84
:101B74002E74332FF9E43409FA7B01753BFF753C6D
:101B840009753DBF753EFF753F0F754026E52D2550
:101B94002F754100F5427543FF7544017545D9120F
:101BA40076587533017534097535337B017A0379B9
:101BB400DE021CB678DE7C037D017B017A07797A2C
:101BC4001230D6EF60030221B078337C097D017BAB
:101BD400FF7A0F793C1230D6EF702D752C01E52C6D
:101BE40075F00DA424DEF582E43403F583E4F005F6
:101BF4002CE52CB408E87533FF75340F7535407B3C
:101C0400017A0379DE021CB6E4F52CF52D7B017A0A
:101C140009793312B29DAC06AD07AF2C7E00C3EF39
:101C24009DEE9C50547B017A0979337535077536DE
:101C34007A12AB888F2CE52C603F752E01E52EC3FC
:101C4400940850C9E52E75F00DA424DEF97403350B
:101C5400F0FA7B01787A7C077D011230D6EF70159B
:101C6400E52E75F00DA424DEF582E43403F583E457
:101C7400F0052D8098052E80C4753BFF753C0975D1
:101C84003DBF753EFF753F0F754058754100852D6A
:101C9400427543FF75440F75455F7B017A097933BB
:101CA4001276587533017534097535337B017A031F
:101CB40079DE12B0ABD2482278337C097D017BFFF8
:101CC4007A0E79491230D6EF60030227F6E4F52E36
:101CD400E52E75F00DA424DEF9740335F0FA7B01CA
:101CE400787A7C077D011230D6EF6007052EE52E49
:101CF400B408DDE52EB408030221B0E52E900717E1
:101D0400600302223F7483F02278337C097D017BD7
:101D1400FF7A0E794D1230D6EF60030227F6E4F510
:101D24002EE52E75F00DA424DEF9740335F0FA7B4C
:101D340001787A7C077D011230D6EF6007052EE525
:101D44002EB408DDE52EB408030221B012AE1090C3
:101D540006F70221BF78337C097D017BFF7A0E7977
:101D6400521230D6EF60030227F6E4F52EE52E7505
:101D7400F00DA424DEF9740335F0FA7B01787A7C43
:101D8400077D011230D6EF6007052EE52EB408DD7D
:101D9400E52EB408030221B09007087404F02278F9
:101DA400337C097D017BFF7A0E79651230D6EF60B2
:101DB400030227F6E4F52EE52E75F00DA424DEF9D2
:101DC400740335F0FA7B01787A7C077D011230D6F2
:101DD400EF6007052EE52EB408DDE52EB4080302F6
:101DE40021B0753BFF753C09753D55753E01753F46
:101DF4000775404A7541FF75420975435B7B017A5B
:101E04000979331276588F2C90000BE07002A3E00E
:101E1400701F7433252CF9E43409FA7B01753BFFF8
:101E2400753C09753D36753EFF753F0F75406D80F5
:101E34001D7433252CF9E43409FA7B01753BFF75D5
:101E44003C09753D36753EFF753F0F75408412762B
:101E540058EF252CF52C7433252CF9E43409FA7B3E
:101E640001753BFF753C09753DBF753EFF753F0F1E
:101E740075409B90000DE0F541A3E0F5427543FFEA
:101E8400754409754540127658EF252CF52C2433FA
:101E9400F9E43409FA7B01753BFF753C09753DBFD4
:101EA400753EFF753F0F7540A8900015E0F541A3FE
:101EB400E0F5427543FF75440F7545BB02200B786E
:101EC400337C097D017BFF7A0E796A1230D6EF608C
:101ED400030227F6E4F52EE52E75F00DA424DEF9B1
:101EE400740335F0FA7B01787A7C077D011230D6D1
:101EF400EF6007052EE52EB408DDE52EB4080302D5
:101F040021B0753BFF753C09753D55753E01753F24
:101F14000775404A7541FF75420975435B7B017A39
:101F24000979331276588F2C9002CCE07002A3E02A
:101F3400701F7433252CF9E43409FA7B01753BFFD7
:101F4400753C09753D36753EFF753F0F7540C3807E
:101F5400489002CCE07004A3E06401701F74332540
:101F64002CF9E43409FA7B01753BFF753C09753D96
:101F740036753EFF753F0F7540D4801D7433252C94
:101F8400F9E43409FA7B01753BFF753C09753D366C
:101F9400753EFF753F0F7540E4127658EF252CF51A
:101FA4002C7433252CF9E43409FA7B01753BFF7555
:101FB4003C09753DBF753EFF753F0F7540F89002B3
:101FC400F1E0F541A3E0F5427543FF75440A754518
:101FD400E3127658EF252CF52C2433F9E43409FA6E
:101FE4007B01753BFF753C09753DBF753EFF753F31
:101FF400107540069002F7E0F541A3E0F542754301
:10200400FF754410754515127658EF252CF52C757F
:1020140033017534097535330226E078337C097D44
:10202400017BFF7A0E796F1230D6EF60030227F638
:10203400E4F52EE52E75F00DA424DEF9740335F0D5
:10204400FA7B01787A7C077D011230D6EF600705B0
:102054002EE52EB408DDE52EB4080C7533FF753477
:102064000E7535D3022186753BFF753C09753D55C8
:10207400753E01753F0775404A7541FF7542097504
:10208400435B7B017A0979331276588F2C74332F92
:10209400F9E43409FA7B01C003753BFF753C09750B
:1020A4003D2A8B3E753F067540FC7541FF75420322
:1020B400754353D003127658EF252CF52C2433F9AD
:1020C400E43409FA7B01C003753BFF753C09753D97
:1020D4002A8B3E753F047540CB7541FF75420575EB
:1020E4004347D003127658EF252CF52C2433F9E41A
:1020F4003409FA7B01C003753BFF753C09753D2A21
:102104008B3E753F077540567541FF754203754315
:10211400A8D003127658EF252CF52C2433F9E43497
:1021240009FA7B01C003753BFF753C09753D2A8B99
:102134003E753F0775405E7541FF7542037543D890
:10214400D003127658EF252CF52C2433F9E4340906
:10215400FA7B01C003753BFF753C09753D2A8B3E34
:10216400753F037540C67541FF7542017543A1D0A3
:1021740003127658EF252CF52C7533017534097547
:1021840035330226E078337C097D017BFF7A0E79B2
:10219400741230D6EF60030227F678DE7C037D01EB
:1021A4007B017A07797A1230D6EF600C7533FF75AC
:1021B400340E7535D30226E09006CC7402F02278F2
:1021C400337C097D017BFF7A0E79791230D6EF607A
:1021D400030227F678DE7C037D017B017A07797A96
:1021E4001230D6EF600C7533FF75340E7535D3029B
:1021F40026E0900929E064017030753BFF753C09C5
:10220400753D2A753E01753F0775404A7541FF7556
:10221400421075431A7B017A097933127658753363
:10222400017534097535330227ED900929E014D37B
:1022340094049004C940047482F0227401F022785A
:10224400337C097D017BFF7A0E797E1230D6EF60F4
:10225400030227F678DE7C037D017B017A07797A15
:102264001230D6EF600C7533FF75340E7535D3021A
:1022740026E0753BFF753C09753D55753E01753F7C
:102284000775404A7541FF75420975435B7B017AC6
:102294000979331276588F2C74332FF9E43409FA00
:1022A4007B01C003753BFF753C09753D55753EFFC9
:1022B400753F107540318B41754207754389D003D2
:1022C400127658EF252CF52C2433F9E43409FA7BE3
:1022D40001C003753BFF753C09753D2A753EFF75CA
:1022E4003F1075403D8B41754207754346D003123C
:1022F4007658EF252CF52C75330175340975353373
:102304000227ED78337C097D017BFF7A0E798312F5
:1023140030D6EF60030227F678DE7C037D017B0173
:102324007A07797A1230D6EF600C7533FF75340E64
:102334007535D30226E09002C3E07002A3E0603C4E
:10234400303D36753BFF753C09753D55753E01754D
:102354003F0775404A7541FF7542107543487B013C
:102364007A09793312765875330175340975353322
:102374007B017A0379DE12B0ABD23D22753BFF7547
:102384003C09753D55753E01753F0775404A7541D9
:10239400FF75420975435B7B017A097933127658DC
:1023A4008F2C74332FF9E43409FA7B01753BFF75E4
:1023B4003C09753D36753EFF753F1075405B1276DE
:1023C40058EF252CF52C203D1D2433F9E43409FA6B
:1023D4007B01753BFF753C09753D27753EFF753FD5
:1023E40010754072801D7433252CF9E43409FA7B8E
:1023F40001753BFF753C09753D27753EFF753F1020
:102404007540851276587533017534097535330274
:1024140027ED78337C097D017BFF7A0E79891230B0
:10242400D6EF60030227F678DE7C037D017B017A18
:1024340007797A1230D6EF600C7533FF75340E7558
:1024440035D30226E09002C3E07002A3E0603C2092
:102454003D36753BFF753C09753D55753E01753F2D
:102464000775404A7541FF7542107543987B017AA0
:102474000979331276587533017534097535337B10
:10248400017A0379DE12B0ABC23D22753BFF753C85
:1024940009753D55753E01753F0775404A7541FF05
:1024A40075420975435B7B017A0979331276588F3B
:1024B4002C74332FF9E43409FA7B01753BFF753C26
:1024C40009753D36753EFF753F1075405B127658B1
:1024D400EF252CF52C203D1D2433F9E43409FA7B37
:1024E40001753BFF753C09753D27753EFF753F102F
:1024F400754072801D7433252CF9E43409FA7B018C
:10250400753BFF753C09753D27753EFF753F10759A
:1025140040851276587533017534097535330227B1
:10252400ED78337C097D017BFF7A0E798E1230D6EB
:10253400EF60030227F678DE7C037D017B017A07D6
:10254400797A1230D6EF600C7533FF75340E753519
:10255400D30226E09002C7E07002A3E07009900263
:10256400C7F0A304F0D235753BFF753C09753D55A2
:10257400753E01753F0775404A7541FF75420975FF
:10258400435B7B017A0979331276588F2C74332F8D
:10259400F9E43409FA7B01753BFF753C09753D2765
:1025A400753EFF753F107540AB127658EF252CF53C
:1025B4002C900791E070257433252CF9E43409FA42
:1025C4007B01753BFF753C09753D27753EFF753FE3
:1025D400107540BA127658EF252CF52C7533017519
:1025E40034097535330227ED78337C097D017BFF8F
:1025F4007A0E79921230D6EF60030227F678DE7CE9
:10260400037D017B017A07797A1230D6EF600C756D
:1026140033FF75340E7535D30226E09002C7E0709F
:1026240002A3E06009E49002C7F0A3F0D235753B41
:10263400FF753C09753D55753E01753F0775404A68
:102644007541FF75420975435B7B017A0979331241
:1026540076588F2C74332FF9E43409FA7B01753BD7
:10266400FF753C09753D27753EFF753F107540CEDB
:10267400127658EF252CF52C753301753409753510
:10268400330227ED7B017A09793312B29DEF640C92
:102694004E60030227F6752C037433252CF582E46F
:1026A4003409F583E0FFC39430400DEFD3943950DF
:1026B40007052CE52CB40BE1E52C640B6003022721
:1026C400F678DE7C037D017B017A07797A1230D6B5
:1026D400EF60127533FF75340E7535D37B017A07BD
:1026E400797A0227F3E4F52C7436252CF582E43448
:1026F40009F583E0FF7491252CF582E43407F58312
:10270400EFF0052CE52CB408DF7D017F0812B42B13
:102714007BCC1D12B2D9E4F52CE52C04FD74912573
:102724002CF582E43407F583E0FB7F0812B2D90567
:102734002CE52CC3940840E1753BFF753C09753DBD
:1027440055753E01753F0775404A7541FF7542094D
:1027540075435B7B017A0979331276588F2C743375
:102764002FF9E43409FA7B01C003753BFF753C1073
:10277400753DDD753EFF753F107540E48B41754234
:10278400077543917544FF7545107546EED00312E5
:102794007658EF252CF52C9002C7E07002A3E06078
:1027A4001F7433252CF9E43409FA7B01753BFF755A
:1027B4003C09753D27753EFF753F107540F8801D37
:1027C4007433252CF9E43409FA7B01753BFF753C1D
:1027D40009753D27753EFF753F11754010127658F7
:1027E4007533017534097535337B017A0379DE124B
:0327F400B0AB2265
:10A03D00753BFF753C11753D28753E00753F0175EB
:10A04D0040017541077542467B017A0479B5127658
:10A05D0058753BFF753C11753D2F753E00753F01E1
:10A06D007540017541077542467B017A07791812D3
:10A07D0076588F2C74182FF9E43407FA7B01753B51
:10A08D00FF753C11753D2F753E00753F027540FF04
:10A09D00754111754237127658EF252CF52C241881
:10A0AD00F9E43407FA7B01753BFF753C11753D2FC3
:10A0BD00753E00753F037540FF75411175424212A3
:10A0CD007658EF252CF52C753BFF753C11753D2F02
:10A0DD00753E00753F017540017541077542467B20
:10A0ED00017A0679CD1276588F2C74CD2FF9E43480
:10A0FD0006FA7B01C003753BFF753C11753D2F754D
:10A10D003E00753F088B40754107754289D003129B
:10A11D007658EF252CF52C24CDF9E43406FA7B0185
:10A12D00753BFF753C11753D2F753E00753F0375F1
:10A13D0040FF754111754242127658EF252CF52CD2
:10A14D00E4F52C74CD252CF582E43406F583E0FF7F
:0DA15D00600A900774E02FF0052C80E722C7
:0EA7F000900BE1E0FEA3E0FF7B017A097933D4
:10A7FE008E2C8F2D8B2E8A2F8930E4F531F5327BFE
:10A80E00017A0479D512B29DC3E52D9FE52C9E5099
:10A81E006B74D5252DF5827404352CF583E0C39425
:10A82E0020405974D5252DF5827404352CF583E01E
:10A83E00FF642C6004EFB40D12AB2EAA2FA9308545
:10A84E003282853183E4122D178031052DE52DAE30
:10A85E002C7002052C1424D5F58274043EF583E089
:10A86E00FFAB2EAA2FA9300532E532AC31700205AE
:10A87E003114F5828C83EF122D1780A7E532453106
:0FA88E007003FEFF22E52D2401FFE4352CFE228E
:10B40D00E4FF122CBFFE6015C394304007EED394B9
:0EB41D003950010F740129F9E43AFA80E52252
:06A94A007B017A0979335C
:10A950008B2C8A2D892EC24DE4F52FF530122CBF99
:10A96000B42D0DD24D7401252EF52EE4352DF52D87
:10A97000AB2CAA2DA92E12B40D8F31E531D394043E
:10A980005067C374049531F531AB2CAA2DA92E1252
:10A990002CBFFF6042C394304030EFD39439502A2B
:10A9A000EF24D0FF7E00AD310531ED25E024A2F586
:10A9B00082E43417F583E493FC740193FD122D397E
:10A9C000EF2530F530EE352FF52F7401252EF52EBD
:10A9D000E4352DF52D80B2304D0FE52FF4FEE53036
:0EA9E000F42401F530E43EF52FAE2FAF302207
:0DAFAF00900BE7EFF07C047DCB7E007B0271
:10AFBC008E2C8F2D8C2E8D2FAF031BEF6029052D22
:10AFCC00E52DAE2C7002052C1424D5F58274043EAC
:10AFDC00F583E0FF052FE52FAC2E7002052E14F53E
:10AFEC00828C83EFF080D1852F82852E83E4F0AEA6
:04AFFC002CAF2D2227
:106B85007BFF7A117945E4F53CF53DFFFE12A3A4A0
:106B9500900BE1EEF0A3EFF07BFF7A117945E4F578
:106BA5003CF53D12A3A4900BE1EEF0A3EFF07B01C1
:106BB5007A0479D575350975363312AB8878B57C85
:106BC500047D017B017A0979331230D6EF60030227
:106BD50070D97BFF7A117947E4F53CF53DFFFE124C
:106BE500A3A4EF4E7003026CA3D23B90044674033A
:106BF500F090070F7406F0E49002F9F09002C57466
:106C050006F0900BE1E0FEA3E0FF7BFF7A117951DE
:106C1500E4F53CF53D12A3A4900BE7EFF0700302F9
:106C250070D9E0FF7E007C067DFC7B0412AFBC12B0
:106C3500AFAF900BE7EFF07C077D5612AFB8900B26
